:100000000C941D010C9445010C9445010C94450180
:100010000C9445010C9445010C9445010C94450148
:100020000C9445010C9445010C94940B0C94600ABB
:100030000C9445010C9445010C9445010C94450128
:100040000C9445010C9445010C9445010C94450118
:100050000C9445010C9445010C9445010C945907EE
:100060000C9445010C9445010C9445010C944501F8
:100070000C9445010C9445010C9445010C944501E8
:100080000C9445010C9445010C9445010C944501D8
:100090000C9445010C9445010C9445010C944501C8
:1000A0000C9445010C9445010C94450100C18081DC
:1000B000C11201000202000040412337800001010B
:1000C00002000112010002000000404123378000BD
:1000D000010102000141726475696E6F204C4C434E
:1000E0000041726475696E6F204D6963726F000420
:1000F000030904080B0002020201000904000001C8
:10010000020200000524001001052401010104245D
:1001100002060524060001070581031000400904BA
:100120000100020A00000007050202400000070566
:10013000830240000000000000000000002A2B287D
:1001400000000000000000000000000000000000AF
:1001500000000000002C9EB4A0A1A2A434A6A7A574
:10016000AE362D3738271E1F20212223242526B303
:1001700033B62EB7B89F8485868788898A8B8C8D05
:100180008E8F909192939495969798999A9B9C9D17
:100190002F3130A3AD350405060708090A0B0C0DF5
:1001A0000E0F101112131415161718191A1B1C1DF7
:1001B000AFB1B0B50009040200010300000009213D
:1001C00001010001226500070584034000010501CB
:1001D0000902A1010901A1008501050919012903ED
:1001E00015002501950375018102950175058103AF
:1001F00005010930093109381581257F75089503F6
:100200008106C0C005010906A1018502050719E0A4
:1002100029E71500250175019508810295017508EA
:1002200081039506750815002565050719002965E0
:100230008100C0006202C80C1B0E11241FBECFEF4C
:10024000DAE0DEBFCDBF11E0A0E0B1E0E4EEFDE119
:1002500002C005900D92A835B107D9F724E0A8E5B2
:10026000B1E001C01D92A13FB207E1F712E0CAE37D
:10027000D2E004C02297FE010E94CB0EC433D10706
:10028000C9F70E9451080C94F00E0C940000CF9214
:10029000DF92EF92FF920F931F93CF93DF93FC01B6
:1002A0008B01108211821282442381F1C0E0D0E0E0
:1002B000C42ED12CE12CF12CD801AC0FBD1F169609
:1002C0002C91169719966C912223E1F06623D1F0B8
:1002D00030E040E050E02F5F3F4F4F4F5F4F70E006
:1002E00080E090E06F5F7F4F8F4F9F4F0E94500ED6
:1002F0009B01AC01C701B6010E94500EDF01AC0F9B
:10030000BD1F8C932196C330D105B1F6CF01DF918B
:10031000CF911F910F91FF90EF90DF90CF900895B4
:10032000CF92DF92EF92FF920F931F93CF93DF93C1
:10033000EC016B018A017901121613061CF07A0197
:1003400000E010E0E881F9810480F581E02DCE0124
:100350000995C801880F991F800F911F8C0D9D1D55
:100360009B838A83FE86ED86CE01DF91CF911F911C
:100370000F91FF90EF90DF90CF900895CF92DF9292
:10038000EF92FF92CF93DF93EC0180915C0190910B
:100390005D019C012F5F3F4F30935D0120935C0115
:1003A000861797079CF10E94A3079B01AC01E0917F
:1003B0005C01F0915D0188EE93E0E89FB001E99F58
:1003C000700DF89F700D1124882777FD8095982F68
:1003D000C0905801D0905901E0905A01F0905B0113
:1003E0002C193D094E095F090E94880E3A83298322
:1003F00010925D0110925C010E94A3076093580166
:100400007093590180935A0190935B01DF91CF91D2
:10041000FF90EF90DF90CF900895AF92BF92CF9270
:10042000DF92EF92FF920F931F93CF93DF9300D051
:100430001F92CDB7DEB77C01B62E009160011091FE
:1004400061010115110559F1D8011C96AC901C975A
:10045000F701818192818436910510F41C961C92DB
:10046000D801ED91FC91C280D3804B2DB801CE0113
:1004700001960E944701F801458556856281738186
:100480009E012F5F3F4FC801F6010995D8011C96C8
:10049000AC921C9714960D911C911597D2CF69E1DF
:1004A00070E0C7010E94BE010F900F900F90DF9186
:1004B000CF911F910F91FF90EF90DF90CF90BF9061
:1004C000AF9008958FEF80936201109264011092B3
:1004D00063010895FC012081222321F0269F212D14
:1004E00009F02F5FFC0120830895FF920F931F9363
:1004F000CF93DF9300D000D0CDB7DEB7FC018B01E6
:100500004081F1805281842F8F71880F880F880F6E
:10051000282F35E5239F212D1124342F3074942F5B
:10052000907247FD25C031110EC0911106C0822F77
:1005300080958B832A8319823FC08BEA8B832B5A49
:100540002A83198239C091110DC0382F4AEA349F8D
:10055000312D11249BEA931B9B8325552A831982F5
:1005600080E02AC01B8280E0822F80958A8312C09F
:10057000311112C091110BC01B82282F3AEA239F20
:10058000212D11248BEA821B8A832B5A03C02B83D3
:100590001A822095298310C0911106C085E5820F2B
:1005A0008B831A828BEA06C08BEA820F8B831A82B6
:1005B00080E085E5821B89832FEFF21601F16F2D14
:1005C000CE0103965C830E946A026F2DCE010296D3
:1005D0000E946A026F2DCE0101960E946A021124C8
:1005E0006F2D6095669F612D11248B81860F8B8303
:1005F0008A81860F8A838981860F89835C815F3F28
:10060000C9F0F12C2F2D552321F0559F212D09F0F4
:100610002F5FF22E622FCE0103960E946A026F2D89
:10062000CE0102960E946A026F2DCE0101960E94B1
:100630006A0211248B81F80180838A8181838981F8
:1006400082830F900F900F900F90DF91CF911F91A9
:100650000F91FF900895AC01505C9A013F7336955D
:100660002795369527953695279556FF06C08FEF27
:1006700097E0BC01621B730B9B01E32FEE0FEE0FA3
:10068000F0E0E25FFE4F8081918132812695329FBA
:10069000800D911D112457FF03C0919581959109FB
:1006A0000895509A0895482F262F30E0C90174E02C
:1006B000880F991F7A95E1F760FF05C02FE0241B92
:1006C000820F911D0895840F911D0895609100017E
:1006D0007091010180917701811145C010926901EB
:1006E000109268018FEF80936C0180936D0180936D
:1006F0006E0180936F01809370018093710181E09E
:1007000080937201109274011092730110926B0128
:1007100010926A018091600190916101892B31F4FE
:1007200086E691E09093610180936001E0915E0123
:10073000F0915F01309721F086E691E09583848304
:1007400086E691E090935F0180935E0110927601BE
:100750001092750181E391E09093670180936601A7
:1007600081E08093770120E030E040E051E086E6D0
:1007700091E00E949001FC018FEF868380EB8783DC
:1007800080EF8087E0910C01F0910D0180E480837F
:100790000895AF92BF92CF92DF92EF92FF920F93A4
:1007A0001F93CF93DF9300D000D0CDB7DEB7D82E04
:1007B000A62EF12CBB24BA94DA0CCD2CE12CC40E5D
:1007C000C982BA82BB8200910001109101016F2D94
:1007D0008E2D4C830E945303BC01660F771F680F58
:1007E000791F600F711FCE0101960E947502E3947C
:1007F0004C8120E1E212E3CFF394F212DDCF0E94AC
:10080000A30700910C0110910D0168387341810517
:10081000910598F40E94A307982F872F762F6627BB
:1008200028E833E140E050E00E94880E30E4329F37
:10083000312D1124F801308303C080E4F801808356
:10084000F8016081C8010E940D020F900F900F9077
:100850000F90DF91CF911F910F91FF90EF90DF905C
:10086000CF90BF90AF900895CF92DF92EF92FF921A
:100870000F931F93CF93DF930E94A30747E2469FF6
:100880009001479F300D1124C9010E942B037C0168
:100890000E94A3074BE1469F9001479F300D112412
:1008A000C9010E942B03EC010E94A307182F23E12A
:1008B00030E0D7010E94CF0EC12CA0E8DA2EE12C47
:1008C000F12CA70196010E94AA0E022F25E130E02B
:1008D000DE010E94CF0EA70196010E94AA0E402FB2
:1008E000622F812FDF91CF911F910F91FF90EF9099
:1008F000DF90CF900C94C903FF920F931F93CF9377
:10090000DF93EC01809165018F5F982F9770909332
:10091000650180FD02C080E001C080E891FD806437
:10092000947009F08062B0E1FB2EF80E20E030E018
:1009300000E011E0FE01E20FF31F6285662331F053
:1009400070E0C8010E94740E6F5F01C060E06783B1
:100950004F2D469F412D11244483662311F0615091
:1009600067832F5F3F4F2330310521F7DF91CF9110
:100970001F910F91FF9008952F923F924F925F9297
:100980006F927F928F929F92AF92BF92CF92DF929F
:10099000EF92FF920F931F93CF93DF93CDB7DEB704
:1009A00061970FB6F894DEBF0FBECDBF6C015A0140
:1009B000F901DC011C968C917A8369835C834B83FB
:1009C00090819B8791819C8792819D87813029F4BA
:1009D000CE0101960E947C0406C01A8619861886EC
:1009E0001F821E821D8289819A818E0D911D9A839C
:1009F0008983002319F083E08E0D01C080E08E878B
:100A00000E94AF07F60127853089621B730B6233A2
:100A10007105B0F3F894E981FA818BB15898598443
:100A20008E81452D481B4E837181772321F0740FF1
:100A300008F47FEF01C070E02C85729F712D1124A6
:100A40008E85AB81BC819B853D856D80688A7F806A
:100A5000798A38844A84E12C1F86212CF12C3D01AF
:100A600061E0661A7108AB2B09F499C1052D041BCE
:100A7000402F132D5889151B188B642D0989601B75
:100A8000698B9BB0192D1160912E8BB0582D5E7F14
:100A9000852ED301122D0F857888662E6F2D5E2D41
:100AA0009BB800C077FF8BB860811127889400C085
:100AB00000C0002C8BB86111670D00C0002C9BB8E2
:100AC00000C076FF8BB808F46FEF889400C000C0B8
:100AD00000C08BB890FD160F00C0002C9BB800C062
:100AE00075FF8BB81795889491FD160F00C000C054
:100AF000002C8BB81795889400C0002C9BB800C0C0
:100B000074FF8BB892FD160F1795889400C000C033
:100B1000002C8BB893FD160F00C0002C9BB800C0B2
:100B200073FF8BB81795889494FD160F00C000C012
:100B3000002C8BB81795889400C0002C9BB800C07F
:100B400072FF8BB895FD160F1795889400C000C0F2
:100B5000002C8BB896FD160F00C0002C9BB800C06F
:100B600071FF8BB81795889497FD160F00C000C0D1
:100B7000002C8BB81795889400C0002C9BB800C03F
:100B800070FF8BB800C000C0002C00C000C08BB844
:100B900000C000C0002C9BB800C017FF8BB862815A
:100BA0000027889400C000C0002C8BB86111660D2E
:100BB00000C0002C9BB800C016FF8BB808F46FEF84
:100BC000889400C000C000C08BB830FD060F00C084
:100BD000002C9BB800C015FF8BB80795889431FD99
:100BE000060F00C000C0002C8BB80795889400C089
:100BF000002C9BB800C014FF8BB832FD060F079580
:100C0000889400C000C0002C8BB833FD060F00C0D4
:100C1000002C9BB800C013FF8BB80795889434FD57
:100C2000060F00C000C0002C8BB80795889400C048
:100C3000002C9BB800C012FF8BB835FD060F07953E
:100C4000889400C000C0002C8BB836FD060F00C091
:100C5000002C9BB800C011FF8BB80795889437FD16
:100C6000060F00C000C0002C8BB80795889400C008
:100C7000002C9BB800C010FF8BB8E80FF11D8894C2
:100C800000C000C000C08BB800C000C0002C9BB8E2
:100C900000C007FF8BB861817727889400C000C02F
:100CA000002C8BB86111640F00C0002C9BB800C0F1
:100CB00006FF8BB808F46FEF889400C000C000C036
:100CC0008BB820FD760F00C0002C9BB800C005FF3C
:100CD0008BB87795889421FD760F00C000C0002C5A
:100CE0008BB87795889400C0002C9BB800C004FF97
:100CF0008BB822FD760F7795889400C000C0002C39
:100D00008BB823FD760F00C0002C9BB800C003FFFA
:100D10008BB87795889424FD760F00C000C0002C16
:100D20008BB87795889400C0002C9BB800C002FF58
:100D30008BB825FD760F7795889400C000C0002CF5
:100D40008BB826FD760F00C0002C9BB800C001FFB9
:100D50008BB87795889427FD760F00C000C0002CD3
:100D60008BB87795889400C0002C9BB800C000FF1A
:100D70008BB800C000C0002C00C000C00F87F62E4A
:100D8000788A698A612F1F2D8BB8698A788AE52E47
:100D9000F12E0F87262E00C000C0002C60CE20EE62
:100DA00031E0D5010E94CF0E6130A0E47A078105C1
:100DB0009105B0F000918304109184042091850482
:100DC00030918604DC01CB014EE0B695A79597954E
:100DD00087954A95D1F7800F911FA21FB31F0BC0B3
:100DE0008091830490918404A0918504B09186043D
:100DF0000196A11DB11D8093830490938404A09358
:100E00008504B093860478940E94AF07F601708B36
:100E1000678761960FB6F894DEBF0FBECDBFDF9136
:100E2000CF911F910F91FF90EF90DF90CF90BF90E7
:100E3000AF909F908F907F906F905F904F903F907A
:100E40002F900895EF92FF920F93E12CF12C00E088
:100E50000E94BC040F91FF90EF900895EF92FF92D3
:100E60000F93E12CF12C01E00E94BC040F91FF9044
:100E7000EF900895EF92FF920F93CF93DF9300D0FE
:100E80001F92CDB7DEB7AB0119821A821B82E12C0B
:100E9000F12C00E09E012F5F3F4FB9010E94BC047E
:100EA0000F900F900F90DF91CF910F91FF90EF90E7
:100EB00008951F920F920FB60F9211242F933F9314
:100EC0008F939F93AF93BF938091830490918404F9
:100ED000A0918504B09186043091820423E0230F11
:100EE0002D3720F40196A11DB11D05C026E8230F62
:100EF0000296A11DB11D20938204809383049093D8
:100F00008404A0938504B093860480918704909113
:100F10008804A0918904B0918A040196A11DB11D95
:100F20008093870490938804A0938904B0938A04E3
:100F3000BF91AF919F918F913F912F910F900FBED5
:100F40000F901F9018952FB7F894609183047091BB
:100F5000840480918504909186042FBF08953FB743
:100F6000F8948091870490918804A0918904B091AD
:100F70008A0426B5A89B05C02F3F19F00196A11D34
:100F8000B11D3FBF6627782F892F9A2F620F711DE1
:100F9000811D911D42E0660F771F881F991F4A959A
:100FA000D1F70895CF92DF92EF92FF92CF93DF9324
:100FB0006B017C010E94AF07EB01C114D104E10475
:100FC000F10489F00E940A0C0E94AF076C1B7D0B94
:100FD000683E734090F381E0C81AD108E108F10837
:100FE000C851DC4FEACFDF91CF91FF90EF90DF90B7
:100FF000CF900895789484B5826084BD84B5816073
:1010000084BD85B5826085BD85B5816085BDEEE610
:10101000F0E0808181608083E1E8F0E010828081EF
:1010200082608083808181608083E0E8F0E080815D
:1010300081608083E1E9F0E080818260808380814B
:1010400081608083E0E9F0E0808181608083E1EC71
:10105000F0E08081846080838081826080838081F1
:1010600081608083E3ECF0E0808181608083E0EC4C
:10107000F0E0808182608083E2ECF0E0808181603A
:101080008083EAE7F0E080818460808380818260F1
:1010900080838081816080838081806880830895DF
:1010A00008950E94FA070E9450088BE894E00E947D
:1010B000EA0B0E946603C0E0D0E00E94340420974F
:1010C000E1F30E940000F9CF40918F045091900409
:1010D00020918D0430918E0442175307B4F49091FF
:1010E000E8009570E1F39091E80092FD19C08093BB
:1010F000F10080918F049091900401968F7399274D
:10110000892B19F48EEF8093E80080918F049091E1
:10111000900401969093900480938F0481E0089549
:1011200080E00895CF92DF92FF920F931F93CF93A9
:10113000DF931F92CDB7DEB7082F162F862F880FAB
:101140008E5F99830E94640883E00E946408F02EF9
:10115000C02E9981D92E8C2D8F19811778F4F60124
:1011600084910E946408082F80E00E946408802314
:10117000FFEFCF1ADF0A8111EECF01C081E00F909F
:10118000DF91CF911F910F91FF90DF90CF90089545
:10119000615030F02091F100FC0120830196F8CFDE
:1011A000289A84E68093920408952FB7FC01208347
:1011B000F89467706093E9000895CF93DF931F92CE
:1011C000CDB7DEB7682FCE0101960E94D508809179
:1011D000F20099819FBF0F90DF91CF910895FF9208
:1011E0000F931F93CF93DF9300D0CDB7DEB7F62ECA
:1011F0008A0190919104992311F057FF03C08FEF5A
:101200009FEF2BC0682FCE0101967A830E94D508EC
:101210008091F20090E0A8017A81801791070CF488
:10122000AC01EF2DF72FF40E84E6FE1639F0289A64
:10123000809392049091F1009193F7CF411551055D
:1012400021F08091F200882321F089818FBFCA01AB
:1012500004C08BE68093E800F8CF0F900F90DF91E9
:10126000CF911F910F91FF900895CF93DF931F921D
:10127000CDB7DEB741E050E0BE016F5F7F4F0E9407
:10128000EF08019719F4898190E002C08FEF9FEF7A
:101290000F90DF91CF910895CF93DF931F92CDB739
:1012A000DEB7682FCE0101960E94D5089091E80024
:1012B000892F807295FF04C09091F20080E4891B11
:1012C00099819FBF0F90DF91CF9108956F927F9288
:1012D0008F929F92AF92BF92CF92DF92EF92FF9246
:1012E0000F931F93CF93DF931F92CDB7DEB7782E66
:1012F0007B01C42EB52E80919104882369F0042FC0
:10130000152F8AEFD82E872D8072982E9AE3A92E5A
:10131000872D8074882E11C08FEF9FEF57C0872DC7
:101320000E944C09682E81110CC0DA94A9F361E087
:1013300070E080E090E00E94D2070115110579F776
:101340003BC0282F30E0021713070CF4602E672DE6
:10135000CE0101960E94D5088091E80085FF29C042
:10136000262D30E0021B130B992039F06A948FEF81
:101370006816B1F01092F100F9CFF701862D77FED3
:1013800007C0815058F094919093F1003196F9CFB5
:10139000815020F091919093F100FACFE20EF31E6C
:1013A0008091E80085FF0FC00115110511F481102F
:1013B0000AC089818FBFC1CF5D9A84E68093930470
:1013C0008C2D9B2D03C0A092E800F3CF0F90DF91EE
:1013D000CF911F910F91FF90EF90DF90CF90BF9032
:1013E000AF909F908F907F906F9008951092E9003A
:1013F0001092900410928F0490938E0480938D0429
:101400000895CF92DF92FF920F931F93CF93DF93B4
:1014100000D0CDB7DEB7F82E8A016B01011511059A
:10142000B1F0F601F7FE02C0849101C080814983CA
:101430005A830E94640801501109FFEFCF1ADF0A96
:1014400049815A818111EACF8FEF9FEF01C0CA0114
:101450000F900F90DF91CF911F910F91FF90DF9030
:10146000CF9008951F93CF93DF931F92CDB7DEB730
:10147000162F2091E80022FFFCCF612F79830E9474
:10148000C8088BEF8093E800812F7981972F0F9008
:10149000DF91CF911F910895CF93DF931F92CDB726
:1014A000DEB71982CE0101960E94680CCE0101962A
:1014B0000E94030D898190E00F90DF91CF910895F4
:1014C0001F920F920FB60F921124EF92FF920F937B
:1014D0001F932F933F934F935F936F937F938F93BC
:1014E0009F93AF93BF93EF93FF93CF93DF93CDB7CA
:1014F000DEB76297DEBFCDBF1092E9008091E800B1
:1015000083FFEBC068E0CE010A960E94C80882EF14
:101510008093E8009A8597FF05C08091E80080FFDE
:10152000FCCF03C08EEF8093E800892F807609F00E
:10153000B9C08B85811105C01092F1001092F100A5
:10154000C5C0282F2D7F213009F4C0C0853049F453
:101550008091E80080FFFCCF8C8580688093E30059
:10156000B5C0863009F076C02D85E888F98822302C
:1015700071F580E090E02A8B0E94F6090E944C0AE7
:1015800099E08E010F5F1F4FF801392F11923A95A4
:10159000E9F799832A892A8391E09E8390E89887C6
:1015A0009AEF998720918F0430919004275F3F4FE5
:1015B0003C832B838D83C7010E94F60949E050E0EC
:1015C000B80180E00E94010A0E944C0A7FC0C70156
:1015D0002A8B0E94F6092A89223241F482E290E0A5
:1015E0000E940E0D892B09F071C074C0213069F47E
:1015F00088899989089711F420938C0480918C0430
:10160000811118C063EC70E01AC0233009F062C089
:101610008C85882391F0823021F46DE081EE90E09A
:1016200006C0813009F056C06BE085ED90E00E9465
:1016300092084AC061EB70E002C06FEE70E0611585
:10164000710509F447C0FB01449150E080E80E9415
:10165000010A3CC0873009F43DC0883021F481E0A4
:101660008093F10033C0893089F5937099F5EDEAE4
:10167000F0E081E021E096E38093E9002093EB0025
:1016800034913093EC009093ED008F5F319685306C
:1016900099F78EE78093EA001092EA008C85809398
:1016A000910414C0888999890E94F6098E85811158
:1016B00005C0CE010A960E94730C06C0823051F418
:1016C000CE010A960E94360D882321F08EEF80937A
:1016D000E80003C081E28093EB0062960FB6F894B5
:1016E000DEBF0FBECDBFDF91CF91FF91EF91BF91D4
:1016F000AF919F918F917F916F915F914F913F91AA
:101700002F911F910F91FF90EF900F900FBE0F90B0
:101710001F9018958093E9008091F200882319F0BA
:101720008AE38093E80008951F920F920FB60F92FC
:1017300011242F933F934F935F936F937F938F93D6
:101740009F93AF93BF93EF93FF938091E10010922B
:10175000E10083FF0FC01092E90091E09093EB004D
:101760001092EC0092E39093ED001092910498E0B7
:101770009093F00082FF1DC083E00E948A0B80914D
:101780009304882339F080919304815080939304CB
:10179000882369F080919204882359F08091920403
:1017A000815080939204811104C0289802C05D98F2
:1017B000F1CFFF91EF91BF91AF919F918F917F9169
:1017C0006F915F914F913F912F910F900FBE0F90AE
:1017D0001F9018951092910481E08093D70080EAC1
:1017E0008093D80082E189BD09B400FEFDCF61E09D
:1017F00070E080E090E00E94D20780E98093D800FA
:101800008CE08093E2001092E000559A209A5D9857
:10181000289808950895CF93DF931F92CDB7DEB730
:101820006983DC01ED91FC910280F381E02D41E0C0
:1018300050E0BE016F5F7F4F09950F90DF91CF9110
:101840000895CF93DF93EC018C859D8597FF05C0AC
:1018500082E00E9435099D878C878C859D85DF916C
:10186000CF91089583E00C948A0BFC0184859585C3
:1018700097FD06C082E00E94DD0890E00196089581
:1018800082E00E94DD0890E00895FC018485958542
:1018900097FD05C02FEF3FEF35872487089582E03D
:1018A0000C943509CF93DF93EC01809109018823D3
:1018B00031F083E00E9466091816190634F081E0C1
:1018C00090E09B838A8380E090E0DF91CF91089540
:1018D000FC0120812E5F208342E450E063EF70E042
:1018E00080E80C94010AFC0181819081913A59F4BD
:1018F000813209F03CC047E050E062E071E080E0F6
:101900000E94010A43C0913291F5803239F467E0B8
:1019100070E082E091E00E94320A06C0823209F053
:1019200035C0828180930901809102019091030169
:10193000A0910401B0910501803B9440A105B1053F
:10194000C1F48091090180FD14C087E797E7909367
:101950000108809300082BE088E190E00FB6F8942E
:10196000A895809360000FBE209360000FC080E0B8
:10197000089588E10FB6F89480936000109260009B
:101980000FBEA895109201081092000881E00895FA
:10199000109297041092960488EE93E0A0E0B0E0D5
:1019A0008093980490939904A0939A04B0939B0415
:1019B0008DE391E090939504809394048FEF9FEFD3
:1019C0009093A1048093A0040895FF920F931F9316
:1019D000CF93DF93EC01F62EE881F9810480F58145
:1019E000E02D09958C01E881F9810680F781E02DD1
:1019F0006F2DCE010995C8019927DF91CF911F91D5
:101A00000F91FF900895FC0120812F5F208349E111
:101A100050E065EB71E080E80C94010A45E650E087
:101A20006EEC71E080E80C94010AEF92FF920F9344
:101A30001F93CF93DF931F92CDB7DEB789838B01BE
:101A40007A0141E050E0BE016F5F7F4F84E00E9469
:101A50006609A701B80184E40E9466090F90DF912E
:101A6000CF911F910F91FF90EF900895FC0191810C
:101A70008081813A31F481E0913091F0933089F4A2
:101A800011C0813271F49B3021F4828180930B016B
:101A900005C09A3031F4828180930A0181E0089573
:101AA000089580E0089548E050E082E00C94150D20
:101AB000CF93DF93DC01683818F0E8E7E60F25C024
:101AC000E62FF0E067FF11C0E058F10981E090E0F7
:101AD00001C0880FEA95EAF714969C911497982B09
:101AE00014969C931497E0E010C0EB5CFE4FE491D9
:101AF000EE2309F440C0E7FF08C014968C911497B8
:101B0000826014968C931497EF7716968C911697A3
:101B10008E1741F117968C9117978E1719F1189619
:101B20008C9118978E17F1F019968C9119978E1742
:101B3000C9F01A968C911A978E17A1F01B968C916A
:101B40001B978E1779F080E090E0ED01C80FD91F48
:101B50002E81211102C0EE8305C0019686309105C9
:101B6000A1F709C0BD016C5F7F4FCD010E94530DED
:101B700081E090E008C081E090E013969C938E9302
:101B8000129780E090E0DF91CF910895683818F0C7
:101B9000E8E7E60F25C0E62FF0E067FF12C0E05847
:101BA000F10921E030E001C0220FEA95EAF7209523
:101BB000DC0114963C911497322314963C93E0E098
:101BC0000FC0EB5CFE4FE491EE2329F1E7FF08C064
:101BD000DC0114962C9114972D7F14962C93EF779B
:101BE00020E030E0EE2351F0DC01A20FB31F169687
:101BF0004C9116974E1302C016961C922F5F3F4FC2
:101C00002630310579F7BC016C5F7F4F0E94530D80
:101C100081E090E0089580E090E00895FC01168254
:101C2000178210861186128613861482BC016C5F9F
:101C30007F4F0C94530D1092F0041092E704109211
:101C4000E6048DE491E09093E5048093E404089524
:101C5000CF92DF92EF92FF920F931F93CF93DF9378
:101C60006C017A01EB01E60EF71E00E010E0CE15E4
:101C7000DF0561F06991D601ED91FC910190F08151
:101C8000E02DC6010995080F191FF1CFC801DF919A
:101C9000CF911F910F91FF90EF90DF90CF9008951B
:101CA000DB018F939F930E94D60EBF91AF91A29FAD
:101CB000800D911DA39F900DB29F900D112408954A
:101CC000AA1BBB1B51E107C0AA1FBB1FA617B70762
:101CD00010F0A61BB70B881F991F5A95A9F780957E
:101CE0009095BC01CD01089597FB072E16F4009442
:101CF00007D077FD09D00E94600E07FC05D03EF4A6
:101D0000909581959F4F0895709561957F4F0895A7
:101D1000A1E21A2EAA1BBB1BFD010DC0AA1FBB1FEF
:101D2000EE1FFF1FA217B307E407F50720F0A21B61
:101D3000B30BE40BF50B661F771F881F991F1A94CE
:101D400069F760957095809590959B01AC01BD01F8
:101D5000CF010895052E97FB1EF400940E94C10E3A
:101D600057FD07D00E94880E07FC03D04EF40C9458
:101D7000C10E50954095309521953F4F4F4F5F4F85
:101D8000089590958095709561957F4F8F4F9F4FE7
:101D90000895EE0FFF1F0590F491E02D09940E9425
:101DA000E10EB7FF0895821B930B08950E94E10E88
:101DB000A59F900DB49F900DA49F800D911D11249F
:101DC0000895A29FB001B39FC001A39F700D811D14
:101DD0001124911DB29F700D811D1124911D089534
:041DE000F894FFCFA5
:101DE400820100E100000000000001016201000026
:101DF4003100F9183000FB302C001C472600825AB1
:101E04001F006D6A170041760E00897D04000000F2
:101E14000022072E0751033A07000000000B0C5262
:101E24000C350C450C210C320C00000000E50C288C
:081E34000E580DC60D0E0E0044
:00000001FF
